{
  "contractName": "Record",
  "abi": [
    {
      "inputs": [],
      "payable": false,
      "stateMutability": "nonpayable",
      "type": "constructor"
    },
    {
      "constant": true,
      "inputs": [
        {
          "internalType": "uint256",
          "name": "",
          "type": "uint256"
        }
      ],
      "name": "recordMap",
      "outputs": [
        {
          "internalType": "string",
          "name": "id",
          "type": "string"
        },
        {
          "internalType": "string",
          "name": "name",
          "type": "string"
        },
        {
          "internalType": "string",
          "name": "place",
          "type": "string"
        },
        {
          "internalType": "string",
          "name": "severity",
          "type": "string"
        },
        {
          "internalType": "string",
          "name": "Hash",
          "type": "string"
        },
        {
          "internalType": "string",
          "name": "Date",
          "type": "string"
        }
      ],
      "payable": false,
      "stateMutability": "view",
      "type": "function"
    },
    {
      "constant": true,
      "inputs": [],
      "name": "recordsCount",
      "outputs": [
        {
          "internalType": "uint256",
          "name": "",
          "type": "uint256"
        }
      ],
      "payable": false,
      "stateMutability": "view",
      "type": "function"
    },
    {
      "constant": false,
      "inputs": [
        {
          "internalType": "string",
          "name": "_id",
          "type": "string"
        },
        {
          "internalType": "string",
          "name": "_name",
          "type": "string"
        },
        {
          "internalType": "string",
          "name": "_place",
          "type": "string"
        },
        {
          "internalType": "string",
          "name": "_severity",
          "type": "string"
        },
        {
          "internalType": "string",
          "name": "_Hash",
          "type": "string"
        },
        {
          "internalType": "string",
          "name": "_Date",
          "type": "string"
        }
      ],
      "name": "addRecord",
      "outputs": [],
      "payable": false,
      "stateMutability": "nonpayable",
      "type": "function"
    },
    {
      "constant": false,
      "inputs": [
        {
          "internalType": "uint256",
          "name": "_id",
          "type": "uint256"
        },
        {
          "internalType": "string",
          "name": "_severity",
          "type": "string"
        }
      ],
      "name": "updateSeverity",
      "outputs": [],
      "payable": false,
      "stateMutability": "nonpayable",
      "type": "function"
    },
    {
      "constant": true,
      "inputs": [
        {
          "internalType": "uint256",
          "name": "_id",
          "type": "uint256"
        }
      ],
      "name": "getRecord",
      "outputs": [
        {
          "internalType": "string",
          "name": "",
          "type": "string"
        },
        {
          "internalType": "string",
          "name": "",
          "type": "string"
        },
        {
          "internalType": "string",
          "name": "",
          "type": "string"
        },
        {
          "internalType": "string",
          "name": "",
          "type": "string"
        },
        {
          "internalType": "string",
          "name": "",
          "type": "string"
        }
      ],
      "payable": false,
      "stateMutability": "view",
      "type": "function"
    }
  ],
  "bytecode": "0x6080604052600060015534801561001557600080fd5b5061184a806100256000396000f3fe608060405234801561001057600080fd5b50600436106100575760003560e01c806303e9e6091461005c578063b2b95b1e146102b3578063eb3dbf8314610378578063f06b3b7914610396578063f2be8eb714610744575b600080fd5b6100886004803603602081101561007257600080fd5b8101908080359060200190929190505050610a07565b60405180806020018060200180602001806020018060200186810386528b818151815260200191508051906020019080838360005b838110156100d85780820151818401526020810190506100bd565b50505050905090810190601f1680156101055780820380516001836020036101000a031916815260200191505b5086810385528a818151815260200191508051906020019080838360005b8381101561013e578082015181840152602081019050610123565b50505050905090810190601f16801561016b5780820380516001836020036101000a031916815260200191505b50868103845289818151815260200191508051906020019080838360005b838110156101a4578082015181840152602081019050610189565b50505050905090810190601f1680156101d15780820380516001836020036101000a031916815260200191505b50868103835288818151815260200191508051906020019080838360005b8381101561020a5780820151818401526020810190506101ef565b50505050905090810190601f1680156102375780820380516001836020036101000a031916815260200191505b50868103825287818151815260200191508051906020019080838360005b83811015610270578082015181840152602081019050610255565b50505050905090810190601f16801561029d5780820380516001836020036101000a031916815260200191505b509a505050505050505050505060405180910390f35b610376600480360360408110156102c957600080fd5b8101908080359060200190929190803590602001906401000000008111156102f057600080fd5b82018360208201111561030257600080fd5b8035906020019184600183028401116401000000008311171561032457600080fd5b91908080601f016020809104026020016040519081016040528093929190818152602001838380828437600081840152601f19601f820116905080830192505050505050509192919290505050610d97565b005b61038061125c565b6040518082815260200191505060405180910390f35b610742600480360360c08110156103ac57600080fd5b81019080803590602001906401000000008111156103c957600080fd5b8201836020820111156103db57600080fd5b803590602001918460018302840111640100000000831117156103fd57600080fd5b91908080601f016020809104026020016040519081016040528093929190818152602001838380828437600081840152601f19601f8201169050808301925050505050505091929192908035906020019064010000000081111561046057600080fd5b82018360208201111561047257600080fd5b8035906020019184600183028401116401000000008311171561049457600080fd5b91908080601f016020809104026020016040519081016040528093929190818152602001838380828437600081840152601f19601f820116905080830192505050505050509192919290803590602001906401000000008111156104f757600080fd5b82018360208201111561050957600080fd5b8035906020019184600183028401116401000000008311171561052b57600080fd5b91908080601f016020809104026020016040519081016040528093929190818152602001838380828437600081840152601f19601f8201169050808301925050505050505091929192908035906020019064010000000081111561058e57600080fd5b8201836020820111156105a057600080fd5b803590602001918460018302840111640100000000831117156105c257600080fd5b91908080601f016020809104026020016040519081016040528093929190818152602001838380828437600081840152601f19601f8201169050808301925050505050505091929192908035906020019064010000000081111561062557600080fd5b82018360208201111561063757600080fd5b8035906020019184600183028401116401000000008311171561065957600080fd5b91908080601f016020809104026020016040519081016040528093929190818152602001838380828437600081840152601f19601f820116905080830192505050505050509192919290803590602001906401000000008111156106bc57600080fd5b8201836020820111156106ce57600080fd5b803590602001918460018302840111640100000000831117156106f057600080fd5b91908080601f016020809104026020016040519081016040528093929190818152602001838380828437600081840152601f19601f820116905080830192505050505050509192919290505050611262565b005b6107706004803603602081101561075a57600080fd5b810190808035906020019092919050505061136e565b6040518080602001806020018060200180602001806020018060200187810387528d818151815260200191508051906020019080838360005b838110156107c45780820151818401526020810190506107a9565b50505050905090810190601f1680156107f15780820380516001836020036101000a031916815260200191505b5087810386528c818151815260200191508051906020019080838360005b8381101561082a57808201518184015260208101905061080f565b50505050905090810190601f1680156108575780820380516001836020036101000a031916815260200191505b5087810385528b818151815260200191508051906020019080838360005b83811015610890578082015181840152602081019050610875565b50505050905090810190601f1680156108bd5780820380516001836020036101000a031916815260200191505b5087810384528a818151815260200191508051906020019080838360005b838110156108f65780820151818401526020810190506108db565b50505050905090810190601f1680156109235780820380516001836020036101000a031916815260200191505b50878103835289818151815260200191508051906020019080838360005b8381101561095c578082015181840152602081019050610941565b50505050905090810190601f1680156109895780820380516001836020036101000a031916815260200191505b50878103825288818151815260200191508051906020019080838360005b838110156109c25780820151818401526020810190506109a7565b50505050905090810190601f1680156109ef5780820380516001836020036101000a031916815260200191505b509c5050505050505050505050505060405180910390f35b60608060608060606000808781526020019081526020016000206001016000808881526020019081526020016000206002016000808981526020019081526020016000206003016000808a81526020019081526020016000206005016000808b8152602001908152602001600020600401848054600181600116156101000203166002900480601f016020809104026020016040519081016040528092919081815260200182805460018160011615610100020316600290048015610b0d5780601f10610ae257610100808354040283529160200191610b0d565b820191906000526020600020905b815481529060010190602001808311610af057829003601f168201915b50505050509450838054600181600116156101000203166002900480601f016020809104026020016040519081016040528092919081815260200182805460018160011615610100020316600290048015610ba95780601f10610b7e57610100808354040283529160200191610ba9565b820191906000526020600020905b815481529060010190602001808311610b8c57829003601f168201915b50505050509350828054600181600116156101000203166002900480601f016020809104026020016040519081016040528092919081815260200182805460018160011615610100020316600290048015610c455780601f10610c1a57610100808354040283529160200191610c45565b820191906000526020600020905b815481529060010190602001808311610c2857829003601f168201915b50505050509250818054600181600116156101000203166002900480601f016020809104026020016040519081016040528092919081815260200182805460018160011615610100020316600290048015610ce15780601f10610cb657610100808354040283529160200191610ce1565b820191906000526020600020905b815481529060010190602001808311610cc457829003601f168201915b50505050509150808054600181600116156101000203166002900480601f016020809104026020016040519081016040528092919081815260200182805460018160011615610100020316600290048015610d7d5780601f10610d5257610100808354040283529160200191610d7d565b820191906000526020600020905b815481529060010190602001808311610d6057829003601f168201915b505050505090509450945094509450945091939590929450565b610d9f61173a565b6000808481526020019081526020016000206040518060c0016040529081600082018054600181600116156101000203166002900480601f016020809104026020016040519081016040528092919081815260200182805460018160011615610100020316600290048015610e555780601f10610e2a57610100808354040283529160200191610e55565b820191906000526020600020905b815481529060010190602001808311610e3857829003601f168201915b50505050508152602001600182018054600181600116156101000203166002900480601f016020809104026020016040519081016040528092919081815260200182805460018160011615610100020316600290048015610ef75780601f10610ecc57610100808354040283529160200191610ef7565b820191906000526020600020905b815481529060010190602001808311610eda57829003601f168201915b50505050508152602001600282018054600181600116156101000203166002900480601f016020809104026020016040519081016040528092919081815260200182805460018160011615610100020316600290048015610f995780601f10610f6e57610100808354040283529160200191610f99565b820191906000526020600020905b815481529060010190602001808311610f7c57829003601f168201915b50505050508152602001600382018054600181600116156101000203166002900480601f01602080910402602001604051908101604052809291908181526020018280546001816001161561010002031660029004801561103b5780601f106110105761010080835404028352916020019161103b565b820191906000526020600020905b81548152906001019060200180831161101e57829003601f168201915b50505050508152602001600482018054600181600116156101000203166002900480601f0160208091040260200160405190810160405280929190818152602001828054600181600116156101000203166002900480156110dd5780601f106110b2576101008083540402835291602001916110dd565b820191906000526020600020905b8154815290600101906020018083116110c057829003601f168201915b50505050508152602001600582018054600181600116156101000203166002900480601f01602080910402602001604051908101604052809291908181526020018280546001816001161561010002031660029004801561117f5780601f106111545761010080835404028352916020019161117f565b820191906000526020600020905b81548152906001019060200180831161116257829003601f168201915b50505050508152505090508181606001819052508060008085815260200190815260200160002060008201518160000190805190602001906111c2929190611770565b5060208201518160010190805190602001906111df929190611770565b5060408201518160020190805190602001906111fc929190611770565b506060820151816003019080519060200190611219929190611770565b506080820151816004019080519060200190611236929190611770565b5060a0820151816005019080519060200190611253929190611770565b50905050505050565b60015481565b6001600081548092919060010191905055506040518060c0016040528087815260200186815260200185815260200184815260200183815260200182815250600080600154815260200190815260200160002060008201518160000190805190602001906112d1929190611770565b5060208201518160010190805190602001906112ee929190611770565b50604082015181600201908051906020019061130b929190611770565b506060820151816003019080519060200190611328929190611770565b506080820151816004019080519060200190611345929190611770565b5060a0820151816005019080519060200190611362929190611770565b50905050505050505050565b6000602052806000526040600020600091509050806000018054600181600116156101000203166002900480601f01602080910402602001604051908101604052809291908181526020018280546001816001161561010002031660029004801561141a5780601f106113ef5761010080835404028352916020019161141a565b820191906000526020600020905b8154815290600101906020018083116113fd57829003601f168201915b505050505090806001018054600181600116156101000203166002900480601f0160208091040260200160405190810160405280929190818152602001828054600181600116156101000203166002900480156114b85780601f1061148d576101008083540402835291602001916114b8565b820191906000526020600020905b81548152906001019060200180831161149b57829003601f168201915b505050505090806002018054600181600116156101000203166002900480601f0160208091040260200160405190810160405280929190818152602001828054600181600116156101000203166002900480156115565780601f1061152b57610100808354040283529160200191611556565b820191906000526020600020905b81548152906001019060200180831161153957829003601f168201915b505050505090806003018054600181600116156101000203166002900480601f0160208091040260200160405190810160405280929190818152602001828054600181600116156101000203166002900480156115f45780601f106115c9576101008083540402835291602001916115f4565b820191906000526020600020905b8154815290600101906020018083116115d757829003601f168201915b505050505090806004018054600181600116156101000203166002900480601f0160208091040260200160405190810160405280929190818152602001828054600181600116156101000203166002900480156116925780601f1061166757610100808354040283529160200191611692565b820191906000526020600020905b81548152906001019060200180831161167557829003601f168201915b505050505090806005018054600181600116156101000203166002900480601f0160208091040260200160405190810160405280929190818152602001828054600181600116156101000203166002900480156117305780601f1061170557610100808354040283529160200191611730565b820191906000526020600020905b81548152906001019060200180831161171357829003601f168201915b5050505050905086565b6040518060c001604052806060815260200160608152602001606081526020016060815260200160608152602001606081525090565b828054600181600116156101000203166002900490600052602060002090601f016020900481019282601f106117b157805160ff19168380011785556117df565b828001600101855582156117df579182015b828111156117de5782518255916020019190600101906117c3565b5b5090506117ec91906117f0565b5090565b61181291905b8082111561180e5760008160009055506001016117f6565b5090565b9056fea265627a7a7231582046d15692aa109f13327ab697231230c7efa75ba609616e4cdf53aadf8dfd083e64736f6c63430005100032",
  "source": "pragma solidity >=0.4.22 <0.8.0;\r\n\r\ncontract Record {\r\n    // Model a Record\r\n    struct dataRecord {\r\n        string id;\r\n        string name;\r\n        string place;\r\n        string severity;\r\n        string Hash;\r\n        string Date;\r\n    }\r\n\r\n    // Read/write Candidates\r\n    mapping(uint => dataRecord) public recordMap;\r\n\r\n    // Store Candidates Count\r\n    uint public recordsCount = 0;\r\n\r\n    // ...\r\n    constructor() public{}\r\n\r\n    function addRecord (string memory _id ,string memory _name, string memory _place,string memory _severity,string memory _Hash, string memory _Date) public {\r\n        recordsCount ++;\r\n        recordMap[recordsCount] = dataRecord(_id, _name, _place, _severity, _Hash, _Date);\r\n    }\r\n    \r\n    function updateSeverity(uint _id, string memory _severity) public {\r\n        dataRecord memory newRecord = recordMap[_id];\r\n        newRecord.severity = _severity;\r\n        recordMap[_id] = newRecord;\r\n    }\r\n\r\n    function getRecord (uint _id ) view public returns(string memory, string memory, string memory, string memory, string memory) {\r\n        return(\r\n                recordMap[_id].name,\r\n                recordMap[_id].place,\r\n                recordMap[_id].severity,\r\n                recordMap[_id].Date,\r\n                recordMap[_id].Hash\r\n            );\r\n    }\r\n    \r\n    \r\n}",
  "sourcePath": "D:/Education/SEM - 6/Block Chain/CRIME/contracts/Record.sol",
  "compiler": {
    "name": "solc",
    "version": "0.5.16+commit.9c3226ce.Emscripten.clang"
  },
  "schemaVersion": "3.3.4",
  "updatedAt": "2021-04-15T05:44:08.406Z",
  "networkType": "ethereum",
  "devdoc": {
    "methods": {}
  },
  "userdoc": {
    "methods": {}
  }
}